:020000020000FC
:0A0000007E306D79335B5F707F7B0B
:0400A0000C940900B3
:10001000FCC00CE211E0A00FB11F0CE211E0C00F18
:10002000D11F71E07093000173E07093030170E0E1
:100030007093020171E0709301011FEF1AB91DB9AD
:1000400008E00EBF0FEF0DBF4FE047B940EF48B9D2
:1000500040E340936C0042E04093680020E07894D5
:100200000E94B5010E94FE01FBCF40E040936C00CC
:1002100040EF47B94FE048B906B1202F2F704FE0AB
:1002200047B940E348B906B10073200F40E340935B
:100230006C0018954F931F933F935F936F937F9339
:100240008F9332173271323109F00DC040910301A2
:10025000413031F0433001F041E04093030103C0ED
:1002600043E0409303018F917F916F915F913F91A4
:100270001F914F9108954F931F933F935F936F93F7
:100280007F938F9332173171313121F032173172F0
:10029000313221F041E04093010104C042E040933B
:1002A000010100C08F917F916F915F913F911F91EC
:1002B0004F9108954F931F933F935F936F937F9355
:1002C0008F9350910101889432173872383241F07F
:1002D00032173472343259F032173272323271F0CE
:1002E00051304CE311F4A41F10C0C41F0EC0513094
:1002F0004AE011F4A41F09C0C41F07C0513041E0F7
:1003000011F4A41F02C0C41F00C08F917F916F9190
:100310005F913F912F911F914F9108954F931F939C
:100320002F933F935F936F937F938F93409101013E
:1003300031E0533089F08894413011F0423021F09F
:10034000A30B0E945B0204C0C30B0E945B0200C0AF
:1003500018F431E0309302018F917F916F915F919A
:100360003F912F911F914F9108954F931F933F936A
:100370005F936F937F938F9350910301409101019D
:10038000889460E0413011F04230C1F03CE3EA175C
:10039000FB17A30B10F06395F9CF8894A31F60930C
:1003A000040160E031E0A30B10F06395FBCF88946B
:1003B000A31F60930501AE17BF1718C03CE3EC17ED
:1003C000FD17C30B10F06395F9CF8894C31F60939A
:1003D000040160E031E0C30B10F06395FBCF88941B
:1003E000A31F60930501CE17DF1700C08F917F9187
:1003F0006F915F913F911F914F9108954F931F937C
:100400003F935F936F937F938F93409103014130AC
:1004100011F0433009F001C000C0009105013AE03D
:1004200050E08894030B10F05395FBCF8894031F82
:1004300031E030953EB9402F4F70E0E0E40F449139
:1004400040954BB90E947D02452F4F7032E03095A8
:100450003EB9E0E0E40F449140954BB90E947D0223
:10046000109104013AE050E08894130B10F053957A
:10047000FBCF8894131F412F4F7034E030953EB965
:10048000E0E0E40F449140954BB90E947D02452F76
:100490004F7038E030953EB9E0E0E40F449140956C
:1004A0004BB90E947D028F917F916F915F913F9137
:1004B0001F914F9108954F931F932F933F935F93F5
:1004C0006F937F938F9341E018EC28EC34E64091D2
:1004D000000118EC1A95F1F72A95D9F728EC3A950E
:1004E000C1F734E64A95A9F78F917F916F915F919B
:1004F0003F912F911F914F9108954F931F932F93E9
:100500003F935F936F937F938F9341E01AE02AE0CC
:1005100034E6409100011AE01A95F1F72A95D9F7CF
:100520002AE03A95C1F734E64A95A9F78F917F9171
:100530006F915F913F912F911F914F910895FFCF40
:00000001FF
